:4000000000800020110000009D1500009D15000008B5044B1A6803F53F5302331A6001F0C5FA00BFFA46004010B5054C237833B9044B13B10448AFF300800123237010BD53
:400040004081FF1F000000003C1E0000084B10B51BB108490848AFF300800848036803B910BD074B002BFBD0BDE81040184700BF000000004481FF1F3C1E0000C880FF1F5E
:400080000000000010B501F0F7FB1A4B187001F095FB194B1B7813B1012B11D020E0154B1B78164A1370012B1AD10122124B1A7001F052FB0022124B1A6001F07FFB0FE0DA
:4000C0000D4A53780133DBB253700A4A11780B4AD15401F041FB0022094B1A6001F06EFB01F0C2FB044C606001F0DCFB0023636010BD00BFD081FF1F5C81FF1F9081FF1FFB
:400100008C81FF1F08B5074A136801331360032B07D90022034B1A600222034B1A7001F0CBFA08BD8C81FF1F5C81FF1F70B5002409E004F2014001F07BFC274B1855274BAD
:4001400018550134E4B2072CF3D9002409E004F2894001F06DFC224B1855224B18550134E4B2072CF3D9002617E0B5B2680000F2094001F05DFC000284B205F2052040009F
:4001800080B201F055FC204380B2174B23F81600164B23F816000136F6B23F2EE5D9002617E0B5B2680000F2914001F041FC000284B205F24920400080B201F039FC204397
:4001C00080B20B4B23F816000A4B23F816000136F6B23F2EE5D970BD4C86FF1F5C85FF1F1482FF1F0086FF1FD484FF1FD083FF1FB082FF1F5484FF1F70B5032858D8DFE8CE
:4002000000F00D1C54382B4B185D2B4B185504F2014101F0A5FB0134E4B200E00024072CF1D970BD254B185D254B185504F2894101F096FB0134E4B200E00024072CF1D9B9
:4002400070BD204B33F814001F4E26F81400A5B2690001F20941000A01F082FB05F20521490089B216F8140001F07AFB0134E4B200E000243F2CE4D970BD144B33F81400A8
:40028000134E26F81400A5B2690001F29141000A01F066FB05F24921490089B216F8140001F05EFB0134E4B200E000243F2CE4D970BD00BF5C85FF1F4C86FF1F0086FF1F03
:4002C0001482FF1FD083FF1FD484FF1F5484FF1FB082FF1F08B5002306E0FF221D49CA541D49CA540133DBB2072BF6D90020FFF783FF002306E0FF221849CA541849CA54AC
:400300000133DBB2072BF6D90120FFF775FF002309E04FF6FF72134921F81320124921F813200133DBB23F2BF3D90320FFF764FF002309E04AF655220C4921F813200C4933
:4003400021F813200133DBB23F2BF3D90220FFF753FF08BD4C86FF1F5C85FF1F1482FF1F0086FF1FD484FF1FD083FF1FB082FF1F5484FF1F08B562B601F0EEFA01F01EFAE0
:400380001049002001F028FA00220F4B1A604FF4806001F04DFB50B9012001F061F9FFF799FF4FF48061012001F0DAFA02E0002001F056F9FFF7BAFE01F048FA034801F0F3
:4003C000A9FA08BD050100008C81FF1F8500000010B5FFF7CFFF634B1B78022BFBD106E0614AD15C614AD1540133DBB200E000235C4A52789342F3D95C4B1B78012B40F023
:40040000AB805A4B5B78013B0F2B00F2A580DFE803F0081A2C3E5065A3A3A3A3A3A3A3A37A8F511CC9B2514800F0F4F8002405E04F4B185D01F048FA0134E4B24D4B1B78D2
:400440009C42F5D388E0511CC9B2484800F0CCF9002405E0484B185D01F036FA0134E4B2444B1B789C42F5D376E0511CC9B23F4800F07AFD002405E0404B185D01F024FA38
:400480000134E4B23B4B1B789C42F5D364E0511CC9B2364800F0FCFD002405E0384B185D01F012FA0134E4B2324B1B789C42F5D352E0511CC9B22D4800F06CFA002405E0B2
:4004C000304B185D01F000FA0134E4B2294B1B789C42F5D30020FFF78FFE3DE0511CC9B2224800F069FE002405E0274B185D01F0EBF90134E4B21F4B1B789C42F5D30320EA
:40050000FFF77AFE28E0511CC9B2184800F0E4FA002405E01D4B185D01F0D6F90134E4B2144B1B789C42F5D30020FFF765FE13E0511CC9B20D4800F09BFE002405E0144B8C
:40054000185D01F0C1F90134E4B20A4B1B789C42F5D30320FFF750FE024B00221A705A7039E700BF5C81FF1F9081FF1FD481FF1FB883FF1F5084FF1FA082FF1F6885FF1FC6
:400580003083FF1F5485FF1FF885FF1FF085FF1FC883FF1F30B4FF252C4609E0037863400749CC5C6C400B4493F80051114601304B1E9AB20029F1D145EA042030BC7047EE
:4005C000401E0000F0B400F04001C9B200F02002D2B200F01003DBB200F00806F6B200F00405EDB200F00204E4B200F00107490941EAD01141EAD20242EA530242EA460312
:4006000043EAC50343EA441040EAC710C0B2F0BC704700BFF0B583B005460C466B466D4A1068516803C3A11E89B22846FFF7B2FF694B1880A31EEB5CB3EB102F40F0C78024
:40064000013C2B5DC0B2834240F0C1802A78012A40F0BD8095F804E06B7943EA0E2E0FFA8EFE1FFA8EF7AE78EB7843EA062636B2B3B23F2B14D90522584B1A702B78584CC1
:4006800023706B78803B63700223A37003212046FFF780FF504B1880030AE370207196E0D919402913DD05224C4B1A702B784C4C23706B78803B63700321A1702046FFF702
:4006C00069FF454B1880030AE37020717FE00EF0070E06F00706C3F3C70341490A706A784A70002410E0E51C3E49CA5C02FA06F00133C95CC6F1080241FA02F20243384921
:400700004A55DBB20134E4B2A2B2B2EBD70FEAD3BEF1000F39D0CEEB0702083200D50732D21005322D490A7094B903342D4AD15CB1400133D25CC6F1080342FA03F302AA39
:40074000724412F8082C0B431340254A135512E00334244AD15CB1400133D35CC6F1080643FA06F602AB734413F8082C41EA060313401B4A13550837B7EB0E0700D50737F7
:40078000C7F3C707164B9F7012E007F10803B3EB0E0300D50733DB10013B114A9370CEEB0707083700D50737FF103B1D0B4A13700A4B1C78A11E0A4D89B22846FFF7EAFE2B
:4007C000054B1880A31E020AEA54013C285503B0F0BD00BF40200000C683FF1F5084FF1FB883FF1F4C86FF1FF0B583B005460C466B46614A1068516803C3A11E89B22846FB
:40080000FFF7C8FE5D4B1880A31EEB5CB3EB102F40F0AF80013C2B5DC0B2834240F0A9802978012940F0A58028796B7943EA002000B286B2AC78EB7843EA042424B21FFA7C
:4008400084FEBEF13F0F14D905224D4B1A702B784C4C23706B78803B63700223A37003214948FFF797FE454B1880030AE37020717FE037460EEB0603402B13DD0522404B08
:400880001A702B783F4C23706B78803B63700321A1703D48FFF77EFE384B1880030AE370207166E000F0070004F00704CEF3C70E344B19706A785A70002516E002F1030CA1
:4008C000324A12F80E3043FA04F10EF1010E12F80E20C4F1080302FA03F30B43294A02F80C305FFA8EFE0135EDB22A4607F1080301461B1A00D50733DB109A42DEDBF0B13A
:40090000761A083600D50736F610701D1C4D2870961C1F4810F80E5025410EF10102805CC4F1080400FA04F402AA114411F8080C144A45EA04010140915593700AE0013BCD
:40094000104A9370711A083100D50731C9100B1D0B4A13700A4B1C78A11E0A4D89B22846FFF718FE054B1880A31E020AEA54013C285503B0F0BD00BF40200000C683FF1F29
:400980005084FF1FA082FF1FB883FF1F1482FF1F0086FF1FF0B585B005460C46023989B2FFF7F8FD464B1880A31EEB5CB3EB102F40F08380013C2B5DC0B283427DD12B784E
:4009C000012B7AD1AA78EB7843EA02231BB299B228796A7942EA00223F2914D90522394B1A702B78384C23706B78803B63700223A37003213548FFF7CDFD314B1880030A50
:400A0000E370207159E0B2B1B2F57F4F13D005222C4B1A702B782C4C23706B78803B63700321A1702948FFF7B5FD254B1880030AE370207141E003F00703C1F3C707244C40
:400A40006E46D4F80802D4F80C1203C6D4F81002D4F8141203C67AB1B2F57F4F14D11D49CC5D04AA134413F8102C13F8080C04EA02030343CB5507E0164AD15D04A8034460
:400A800013F8103C0B40D3552B780F4C23706B786370AB78A370EB78E3702B7923716B7963710822074B1A7006212046FFF772FD034B1880030AA371E07105B0F0BD00BFD8
:400AC000C683FF1F5084FF1F5485FF1FB883FF1F401E00005C85FF1F2DE9F04F8BB004460D46023989B2FFF755FDBA4B1880AB1EE35CB3EB102F40F02C82013D635DC0B235
:400B0000834240F026822279637943EA02231BB29FB2A678E27842EA062636B2B5B23F2D14D90522AC4B1A702378AC4D2B706378803B6B700223AB700321A948FFF72AFDFF
:400B4000A44B1880030AEB70287102E2EA19402A13DD0522A04B1A702378A04D2B706378803B6B700321A9709D48FFF713FD994B1880030AEB702871EBE103F0070BC5F34E
:400B8000C7052278954B1A7062785A70954B06AAD3F81802D3F81C1203C208AAD3F82002D3F8241203C216F0070613D1BBF1000F0BD00FE0F31DE05CFFF704FD8A4B5855E8
:400BC0000135EDB20136F6B200E00026A3799E42F0D359E04EBBBBF1000F0BD125E0F31DE05CFFF7EFFC804B58550135EDB20136F6B200E00026A379013B9E42EFDB7A4F74
:400C000017F805800BF1FF390AAB994419F8083C08EA03080736A05DFFF7D4FC19F8103C184048EA00037B552EE0002E00F02081BBF1000F00F01C81B146BB190193082BA7
:400C400040F39D80A4E0019A072A1FDCDDF808B0039E654F785D731E0AAA134413F810EC06EB0B03013B134413F8082CE379C6F10801CBEB01018B404EEA02021040184328
:400C8000C0B2FFF79FFC7855002353E1DFB9DFF858A11AF805B009F1FF360AAB1E4416F8108CFB1DE05CFFF78DFC40FA09F016F8083C0BEA0808184048EA00080AF8058078
:400CC0000135EDB258E0013B9F4242D1002F40D0029B4B4413F0070328D0FA1DA65C052E4AD1DFF804B11BF805200492013B0AA901EB030A1AF8081C0591BB1DE05CFFF7C8
:400D000061FCC9F1080800FA08F83046FFF75AFC40FA09F01AF8103C48EA00021A40049B05990B4013430BF8053025E0BB1DE05CFFF748FCC9F1080300FA03F6FB1DE05C3C
:400D4000FFF740FC40FA09F046EA0003264A535512E0BB1DE05CFFF735FCC9F1080600FA06F6FB1DE05CFFF72DFC40FA09F030431D4B58550135EDB20137FFB203E00027E2
:400D8000CDF808B00396A3799F42FFF45CAF7BE7019B082B64DC77E746BBDFF84CA01AF805B009F1FF370AAB1F4417F8108CF31DE05CFFF707FC40FA09F017F8082C0BEA25
:400DC000080800EA020348EA03030AF805300135EDB242E0C683FF1F5084FF1FF085FF1FB883FF1F401E00005C85FF1F9E4220D1FEB1DFF8648118F805A0019B03EB090761
:400E000007F00707013F0AAB1F4417F808BCB31DE05CFFF7D7FBC9F10803984017F8102C0AEA0B0A00EA02034AEA030308F8053013E0B31DE05CFFF7C5FBC9F1080300FAEB
:400E400003F7F31DE05CFFF7BDFB40FA09F047EA0003414A53550135EDB20136F6B202E00026CDF804B0A3795A1C964294DB0BE7002E3FF409AFBBF1000F50D004E7D7B975
:400E8000DFF8D48018F805A006F1FF3B0AAB9B441BF8109CFB1DE05CFFF794FB30411BF8082C0AEA0909104049EA000308F805300135EDB230E09F421BD1DFF89C8018F8C7
:400EC00005A006F1FF3B0AAB9B441BF8089CBB1DE05CFFF777FBC6F1080398401BF8102C0AEA090900EA020349EA030308F8053012E0BB1DE05CFFF765FBC6F1080800FAEC
:400F000008F8FB1DE05CFFF75DFB304148EA0000114B58550135EDB20137FFB200E00027A3795A1C9742AADBAEE6E15C0B4AD1540133DBB2052BF8D90822094B1A70074C46
:400F400006212046FFF726FB064B1880030AA371E0710BB0BDE8F08F5C85FF1FF085FF1F5084FF1FC683FF1FF8B505460C46023989B2FFF70FFB414B1880A31EEB5CB3EB1E
:400F8000102F79D1013C2B5DC0B2834274D12A78012A71D129796B7943EA012109B28CB2AB78E87840EA03233F2B14D90522344B1A702B78334C23706B78803B63700223E5
:400FC000A37003213048FFF7E5FA2C4B1880030AE3702071F8BD1F4626462344402B13DD0522274B1A702B78264C23706B78803B63700321A1702448FFF7CCFA1F4B18808A
:40100000030AE3702071F8BD1E4B1A706A785A704900C9B29970002319E013F001000BD1D41C07EB5305DFF864E03EF815502D0ADFF850E00EF8045038B1033207EB5300B7
:40104000124C14F810400F4884540133DBB21A46B3EB460FE1DB0531CCB2094B1C70A11E084D89B22846FFF795FA044B1880A31E020AEA54013C2855F8BD00BFC683FF1F5A
:401080005084FF1F6885FF1FB883FF1FD484FF1FF8B505460C46023989B2FFF77BFA414B1880A31EEB5CB3EB102F79D1013C2B5DC0B2834274D12A78012A71D129796B7910
:4010C00043EA012109B28CB2AB78E87840EA03233F2B14D90522344B1A702B78334C23706B78803B63700223A37003213048FFF751FA2C4B1880030AE3702071F8BD1F46F9
:4011000026462344402B13DD0522274B1A702B78264C23706B78803B63700321A1702448FFF738FA1F4B1880030AE3702071F8BD1E4B1A706A785A704900C9B29970002345
:4011400019E013F001000BD1D41C07EB5305DFF864E03EF815502D0ADFF850E00EF8045038B1033207EB5300124C14F810400F4884540133DBB21A46B3EB460FE1DB0531BC
:40118000CCB2094B1C70A11E084D89B22846FFF701FA044B1880A31E020AEA54013C2855F8BD00BFC683FF1F5084FF1F3083FF1FB883FF1FB082FF1F38B505460C4602396B
:4011C00089B2FFF7E7F9254B1880A31EEB5CB3EB102F42D1013C2B5DC0B283423DD12B78012B3AD1AA78EB7843EA02233F2B14D905221B4B1A702B781A4C23706B78803B7B
:4012000063700223A37003211748FFF7C3F9134B1880030AE370207138BD29796A7942EA0122124921F813202B780E4C23706B786370AB78A370EB78E3702B7923716B79C9
:4012400063710822064B1A7006212046FFF7A2F9024B1880030AA371E07138BDC683FF1F5084FF1FF885FF1FB883FF1FD083FF1F70B505460C46023989B2FFF78BF93B4B35
:401280001880A31EEB5CB3EB102F6DD1013C2B5DC0B2834268D12B78012B65D1A978EB7843EA01212B796A7942EA03233F2914D905222F4B1A702B782E4C23706B78803BBF
:4012C00063700223A37003212B48FFF763F9274B1880030AE370207170BD0E4618460B44402B24DD0522224B1A702B78214C23706B78803B63700321A1701F48FFF74AF95E
:401300001A4B1880030AE370207170BD13F0010F0AD006EB5302991D6C5CD91D695C41EA0421164C24F812100133DBB200E00023B3EB400FEADB2B780E4C23706B7863707A
:40134000AB78A370EB78E3702B7923716B7963710822074B1A7006212046FFF71BF9034B1880030AA371E07170BD00BFC683FF1F5084FF1FC883FF1FB883FF1FD083FF1F24
:40138000FEE700BFF0B40022174611E050F82760F3B226F0FF0608E001EB420511F812406D78A5550132013BDBB2002BF4D10137102FEBD9F0BC7047064B1B78DBB203F0A3
:4013C0000701054A11701B09013213704422034B1A707047CF0100496E5800407658004008B50A46002100F020FD08BD38B54FF49C72244B1A80182202331A70022203F2C0
:401400007E231A7008224FF040231A70032103F5007319701C4B1B78DBB21C490B701C4B1A8041F25122023B1A80002419250CE0184B1B7803F0010343EA440404F0030483
:401440004FF4F07000F008FB013D0DB1032CEFD115B90320FFF794FF0F4B4FF480721A8007221A7000220D490A704820023108701A700222033B1A70094A137843F0010305
:40148000137038BD8040004008010049A146004022420040254200400440004006400040A243004008B500F0B5FC08BD38B572B62B4A137843F00403137000240CE0294D46
:4014C000630019194A0011462A44084691882858FFF786FF0134E4B2072CF0D922494FF09040FFF74FFF214A137843F0020313701032137843F0020313701D4C237843F0F1
:4015000040032370A2F58632513A137843F0100313700A2217491848FFF7C4FF082217491748FFF7BFFF082216491748FFF7BAFF164A137843F008031370154D61232B70A1
:40154000FFF754FF81232B700122124B1A70FFF733FF0E2221461048FFF7A4FF38BD00BFE8460040682000004400004803500140A0430040C4030048C0510040D0030048C1
:4015800012510040D803004822510040224300400048004004000840B043004008B500F00DFC03680C2B00D1FEE7FEE708B5104E104D16E029686B68AC68002204E051F8DE
:4015C000040B43F8040B0432A242F8D1E868002203E0002143F8041B04328242F9D11035013E002EE6D100F0EFFBFEF7F1FEFEE701000000C020000008B5104A104B1A6042
:40160000104A136843F40073136000230AE0032B03D80D4A52F8231000E00C490C4A42F8231001332F2BF2D90A4B1A780A4B1A70074A0A4B1A60FFF739FF08BD0004FA05A1
:401640000CED00E014ED00E0000000009D1500000080FF1FBC760040C080FF1F08ED00E0044A137803F0FD03400000F002001843107070472051004001BE704708B5034BF9
:401680001B7A00FB03F000F0E7F908BDCC80FF1F70B504460E46074B1D680F2802D90020FFF7EAFF04F00F0455F8240045F8246070BD00BF08ED00E0024A136823F0010325
:4016C0001360704710E000E0024A136843F002031360704710E000E008B5FFF7F5FF034A136843F00103136008BD00BF10E000E020F07F40014B1860704700BF14E000E0AD
:40170000012805D1054A136843F0040313607047024A136823F004031360704710E000E0024B1868C0F30040704700BF10E000E010B5FFF7F5FF01280BD107E0054B03EBC2
:4017400084035B6803B19847013400E00024042CF4D910BD6481FF1F0022014B1A60704718E000E008B5002305E00F4A02EB8302002151600133042BF7D90C490F20FFF700
:4017800087FF0120FFF7BCFF094BDB680948A0FB03308009FFF7ACFFFFF7DEFF4FF40042054B1A6008BD00BF6481FF1F31170000CC80FF1FD34D621000E100E008B5054B36
:4017C0009B6923B9FFF7CEFF0122024B9A61FFF783FF08BD6481FF1F024B03EB80035868596070476481FF1F7222084B1A702022A3F580731A7006225F3B1A7047221033EA
:401800001A70002203F251131A7070478865004010B500F029F904460B4A137843F020031370A2F58072137843F01003137002F58172137843F01003137000F079F8204679
:4018400000F016F910BD00BF9865004008B5054B1B7823B9FFF7C8FF0122024B1A70FFF7D7FF08BD8081FF1F024B187800F07F00704700BF68640040084B1B78DBB213F079
:40188000200F06D0064A1078C0B213F01E0F02D17047002070470020704700BF686400404B65004008B500F0DFF8064B1A7842F001021A701A7802F0FE021A7000F0D8F8C2
:4018C00008BD00BF9B650040034B1B7813F0040FFAD1024B187070476A65004049650040014B1B681864704708ED00E04001C0B2014B1870704700BF00E400E00122014BD2
:401900001A60704700E100E00122014B1A60704780E100E010B50446FFF7F6FF2046FFF7DFFF0720FFF7E2FFFFF7E8FF10BD00BF054A137843F0010313701032137843F0A5
:4019400001031370704700BFA243004008B500F0E9F800F0F1F808BD08B5FFF7F7FF08BD30B583B00C468DF8070000F025F9B4F5006F52D22509A4EB0514A4B200F0C8F98E
:4019800000284CD101230DF107022146402000F03FF9044607282FD1234B1B7813F0020FFAD0214B1B7813F0020F06D01E4B1B789B0805D04FF0FF3403E04FF0FF3400E06C
:4019C0000024E4B9194A537812782946402000F05BF9072816D1144B1B7813F0020FFAD0114B1B7813F0020F0FD00F4B1B789B0810D04FF0FF340DE0012809D10AE04FF098
:401A0000FF3407E04FF0FF3404E04FF0FF3401E04FF0FF3400F0A2F902E0012400E00424204603B030BD00BF224700409886FF1F38B5044600F018F8054600F0A7F804F127
:401A4000804000F500400478E4B200F0ADF8284600F00EF8204638BD0230800803D000BF01380046FCD17047EFF3108072B6704780F31088704700BF10B500F09DF800F0B0
:401A800047F910BB012000F025F9072818D102210F4800F0A3F802280AD102E00120FFF7EDFD0C4B1B7813F0020FF7D0002409E0084B1B7813F0020FE9D04FF0FF3401E00F
:401AC0004FF0FF3400F04AF900E00424204610BD9886FF1F2247004010B500F06DF800F017F9D0B900F056F90446072812D102E00120FFF7C3FD0A4B1B7813F0020FF7D067
:401B0000074B1B7813F0020F04D0054B1B789B0800D1002400F022F900E00424204610BD2247004008B5FFF7D7FF034610B9FFF7A3FF0346184608BD08B5FFF795FF0F4A2F
:401B4000137843F0080313701032137843F008031370C8220A4B1A700A4A137843F0100313701032137843F010031370064B1B7813F0200FFAD0FFF77BFF08BDA04300404C
:401B800001470040AC43004000470040054A137843F001031370034B1B7813F0020FFAD0704700BF02470040024A137803F0FE03137070470247004008B5FFF755FF064AB0
:401BC000137843F0080313701032137843F008031370FFF74DFF08BDA043004070B506460D4600240CE00120FFF748FD064B1B7813F0010FF7D0054B1B7833550134E4B2BD
:401C0000AC42F3D3204670BD224700402047004030B43E2801D81F2B03D93F2827D90F2B27D8174C247814F0020F24D0154CB6252570D4252570012525700234247814F02C
:401C4000020F1AD10F4C2070C1F300202070C9B22170591EC9B22170002104E0545C094804700131C9B29942F8D3072006E0012004E0012002E0042000E0092030BC7047D8
:401C8000224700402047004030B4104C247814F0020F15D00E4CB6252570D8252570052525700234247814F0020F0BD1084C2070080A2070C9B2217022702370072002E060
:401CC000042000E0092030BC704700BF22470040204700400C4B1B7813F0020F0FD00B4BB6221A70E1221A700E221A7002331B7813F0020F05D1054B18700720704704209D
:401D000070470920704700BF224700402047004010B5FFF7A9FE0F4B1B78A3B901220D4B1A700D4B1B6813F0010F0ED00A4A136823F00103136000BF00BF00BF0122054B78
:401D40005A60002402E0042400E00024FFF790FE204610BD8481FF1F0400084008B5FFF783FE0A4B00221A705B68012B0AD1084A136843F00103136000BF00BF00BF00227C
:401D8000024B5A60FFF774FE08BD00BF8481FF1F04000840074B1B7813F0020F08D0064BB6221A70E0221A700D221A7007207047042070472247004020470040014B186823
:401DC000704700BF3C81FF1F0E4B70B51E460E4C0025E41AA410A54204D056F8253098470135F8E700F05AF9084B094C1E46E41AA4100025A54204D056F825309847013594
:401E0000F8E770BDA8200000A8200000A8200000B020000010B5431E0A44914204D011F8014B03F8014FF8E710BD03460244934202D003F8011BFAE7704700000000000022
:401E400000C1814001C0804101C0804100C1814001C0804100C1814000C1814001C0804101C0804100C1814000C1814001C0804100C1814001C0804101C0804100C1814042
:401E800001C0804100C1814000C1814001C0804100C1814001C0804101C0804100C1814000C1814001C0804101C0804100C1814001C0804100C1814000C1814001C0804102
:401EC00001C0804100C1814000C1814001C0804100C1814001C0804101C0804100C1814000C1814001C0804101C0804100C1814001C0804100C1814000C1814001C08041C2
:401F000000C1814001C0804101C0804100C1814001C0804100C1814000C1814001C0804101C0804100C1814000C1814001C0804100C1814001C0804101C0804100C1814081
:401F400000C0C101C30302C2C60607C705C5C404CC0C0DCD0FCFCE0E0ACACB0BC90908C8D81819D91BDBDA1A1EDEDF1FDD1D1CDC14D4D515D71716D6D21213D311D1D01081
:401F8000F03031F133F3F23236F6F737F53534F43CFCFD3DFF3F3EFEFA3A3BFB39F9F83828E8E929EB2B2AEAEE2E2FEF2DEDEC2CE42425E527E7E62622E2E323E12120E041
:401FC000A06061A163A3A26266A6A767A56564A46CACAD6DAF6F6EAEAA6A6BAB69A9A86878B8B979BB7B7ABABE7E7FBF7DBDBC7CB47475B577B7B67672B2B373B17170B001
:40200000509091519353529296565797559594549C5C5D9D5F9F9E5E5A9A9B5B99595898884849894B8B8A4A4E8E8F4F8D4D4C8C44848545874746868242438341818040C0
:402040000080C0E0F0F8FCFE7FBFDFEFF7FBFDFE804020100804020180C0E0F0F8FCFEFF7F3F1F0F07030100005100401000305100404000F05100401000000001400010EA
:4020800000140140000800400140000A004C0140000200500140200043000000F8B500BFF8BC08BC9E4670474D000000F9150000F8B500BFF8BC08BC9E4670472900000033
:4020C000D0200000C880FF1F7800000060050000000000000000E02EC05D00001800000000366E0100000000000000000000000000000000000000000000000000000000C5
:4021000000000000982000000000000000000000000000000000000000000000000000000000000000000000000000000000000000000000000000000000000000000000E7
:4021400000000000DC80FF1F0000000000000000000000000000000000000000000000000000000000000000000000000000000000000000000000000000000000000000E5
:40218000000000000000000000000000000000000000000000000000000000000000000000000000000000000000000000000000000000000000000000000000000000001F
:4021C00000000000000000000000000000000000000000000000000000000000000000000000000000000000000000000000000000000000000000000000000000000000DF
:40220000000000000000000000000000000000000000000000000000000000000000000000000000000000000000000000000000000000000000000000000000000000009E
:40224000000000000000000000000000000000000000000000000000000000000000000000000000000000000000000000000000000000000000000000000000000000005E
:020000040003F7
:0200000480007A
:400000000252004001640040026500400107014052080140340901404A180140451901404A1A0140471B014002400140014101400142014003430140074D014004500140B9
:400040000151014061806440883888728A0FE6020003040C081F090F0C0811061309140C150916131706180419061C0F1E101F01221324012502281329072A0C2B082C02D9
:400080002D043307340F3508361C39203AA854185604580459045B045F0184108640870889018B068C0C8D018E718F0E941096AC97039A039B0C9CDC9E22A014A10CA303C1
:4000C000A409A6D0AA20B0E0B10FB41FBA02BB02C004C504C9FFCA07CBFFCC40CD20CEF0CF05D008D804D904DA04DF01E040E1A8E240E32000400220041005810720084074
:400100000A060B100C200D080E12109814A4174018401A041B101C101D141E0A2201271828402C202D802E10301832103484360537A038403B143C1042404A204B0450085B
:400140005F016408664067408740C0F5C2E7C4FECA71CCF6CE2ED001D680D8B002030302041F0501080709010A180C100D01141C1602170218081B041E04201C22012404F6
:40018000262028182F043101321F3304350236203A083F1456025711580459045B045F01880389138B0C8C038D138F04952097059B089C02A10AA314A903AA01AB04B00345
:4001C000B30FB530B802B920BB08BE01C036C104C50EC6CBC80DC9FFCAFFCBFFCEF0CF44D00CD804D904DA04DF01E6C0EA40EB0200500594078008400A020C200D080E01FF
:4002000010081420150117201A401D081E01201022102310260A278428402A102F0230083210371838503D503E043F02405048084B045080521058085B045D015E226D5028
:400240006E0C7420758077208A48904092029660971199149B189C289D819E409FE0A008A201A310A4A0A508C0F3C2E1C472CA15CC66CEFCD003D204D620050208010C015F
:400280001E01250126012A013302360137013E403F445401580459045B045F0180018105820E83028420850388208C048E118F0C930C9420970C9807990C9C209D0A9F013E
:4002C000A50CA807A903AC02AD0CAE11B007B103B220B30CB618BE44C035C106C202C401C5E0C7C0C822C9FFCAFFCBFFCC62CDA0CEF0CF41D00CD804D904DA04DF01E64068
:40030000E702E910EA30EB10ED10EE10EF1200500488051D07040A020C040D080E0A10181210155019801D811E6020012204248027602B102D182E40340435103601374089
:400340003B043E063F80458047144C044E024F825702581159805A088001840187048C208D408E028F219050911092069304970199149A109B109C209D019F40A008A1088F
:40038000A207A310A610A703C0F3C2E1C4C6CA72CCF0CED2D070D230D60FE0013220CC10A620A6208620A620E6401280710281028E80C408DC01E20200010C0110011C0156
:4003C00000030000800040808000800000000000000B0B000000000000020200000000000000000000000000000000000000000000000000000000000000000000000000A0
:4004000000000000000000000000000000000000000000000000000000000000000000000000000000000000000000000000000000000000000000000000000000000000BC
:40044000000000000000000000000000000000000000000000000000000000000000000000000000000000000000000000000000000000000000000000000000000000007C
:40048000000000000000000000000000000000000000000000000000000000000000000000000000000000000000000000000000000000000000000000000000000000003C
:4004C00000000000000000000000000000000000000000000000000000000000000000000000000000000000000000000000000000000000000000000000000000000000FC
:0200000490006A
:0400000000004005B7
:0200000490105A
:04000000BC90ACAF55
:0200000490303A
:0200000023C318
:0200000490402A
:4000000000000000000000000000000000000000000000000000000000000000000000000000000000000000000000000000000000000000000000000000000000000000C0
:400040000000000000000000000000000000000000000000000000000000000000000000000000000000000000000000000000000000000000000000000000000000000080
:400080000000000000000000000000000000000000000000000000000000000000000000000000000000000000000000000000000000000000000000000000000000000040
:4000C0000000000000000000000000000000000000000000000000000000000000000000000000000000000000000000000000000000000000000000000000000000000000
:0200000490501A
:0C00000000012E16106900012E24342C83
:00000001FF